:1000000064EF47F00000000000EF00F00000000087
:0A0010000000000000000000F3D71C
:10001C00A0C5C9FFC7B002D00000FCD7C9CF00F003
:02002C001200C0
:08002E000AAE029E000E120052
:100036000B840BAE26EF00F0010E036E026A016A16
:0A004600006A0A360232FF0E1200B3
:10005000F250026EF29E0500FF6A0150FE6E0050E3
:08006000FD6E02BEF28E1200DB
:0E006800026A016A006A086A036A000E12004A
:100076000B820BAE45EF00F003680268016800686A
:080086000A360232FF0E1200DF
:10008E000CB089EF00F00CA22FEF01F00E6A000EFB
:10009E000264A0EF00F0F00E0214D8A46BEF00F093
:1000AE00023A01380F0B02260138F00B016E0038B0
:1000BE000F0B01260038F00B006E08380F0B0026D0
:1000CE000838F00B086E0E84D89002BE84EF00F054
:1000DE0008360036013602360E2A02BE84EF00F0D4
:1000EE0008360036013602360E2A02BE84EF00F0C4
:1000FE0008360036013602360E2A0E50036425EFFE
:10010E0001F0035E0BBC08AE2AEF01F0D880800E22
:10011E0008640030000E002201220222D8A02AEF2D
:10012E0001F0023201320032034A2FEF01F02AEFC2
:10013E0001F001C002F000C001F008C000F0086A32
:10014E00000E0E860264D7EF00F0F00E0214D8A453
:10015E00BFEF00F0023A01380F0B02260138F00B08
:10016E00016E00380F0B01260038F00B006E0E8466
:10017E00D89002BE84EF00F00036013602360E2A09
:10018E0002BE84EF00F00036013602360E2A02BEA1
:10019E0084EF00F00036013602360E2A84EF00F0AE
:1001AE0001C002F000C001F0006A000E0E960E882B
:1001BE00026404EF01F0F00E0214D8A4EFEF00F089
:1001CE00023A01380F0B02260138F00B016E0E8435
:1001DE00D89002BE84EF00F0013602360E2A02BE1F
:1001EE0084EF00F0013602360E2A02BE84EF00F0D4
:1001FE00013602360E2A84EF00F001C002F0016AC9
:10020E00000E0E86026434EF01F0F00E0214D8A434
:10021E0013EF01F0023A0E84D89002BE84EF00F084
:10022E0002360E2A02BE84EF00F002360E2A02BEFD
:10023E0084EF00F002360E2A84EF00F0010E0C6EF1
:10024E00F3DE37EF01F0020E0C6EEADE37EF01F04F
:10025E00040E0C6E09DF37EF01F0080E0C6EFDDE9A
:02026E0012007C
:10027000400E05019725006EE7C2E1FFE8C2E2FFEC
:1002800000C0E6FFE5C200F0E6C201F0E1DEE7C231
:10029000E1FFE8C2E2FF9BC5E6FFE5C200F0E6C26F
:1002A00001F0D6DEE7C2E1FFE8C2E2FF9AC5E6FF51
:1002B000E5C200F0E6C201F0CBDEE7C2E1FFE8C232
:1002C000E2FF99C5E6FFE5C200F0E6C201F0C0DE3C
:1002D000E7C2E1FFE8C2E2FF98C5E6FFE5C200F031
:1002E000E6C201F0B5DEE7C2E1FFE8C2E2FF9CC56D
:1002F000E6FFE5C200F0E6C201F0AADE05019E6B52
:100300009F6BE7C2E1FFE8C2E2FFFF0EE66EE5C2C7
:1003100000F0E6C201F09CDE00C09DF505019E4B99
:100320009F2B800E0014016E0150000A07E0000EA2
:100330009F5D02E1640E9E5D01E2E3D79DC500F082
:020340001200A9
:040342008B9012008A
:10034600E7C2E1FFE8C2E2FFFF0EE66EE5C200F09B
:10035600E6C201F07ADE0050FE0A01E0F1D7120093
:100366008B80E7C2E1FFE8C2E2FFFF0EE66EE5C260
:0A03760000F0E6C201F069DE12009B
:10038000E7C2E1FFE8C2E2FF4C0EE66EE5C200F014
:10039000E6C201F05DDEE7C2E1FFE8C2E2FFE66A25
:1003A000E5C200F0E6C201F053DEE7C2E1FFE8C2B9
:1003B000E2FFE66AE5C200F0E6C201F049DEE7C20C
:1003C000E1FFE8C2E2FFE66AE5C200F0E6C201F042
:1003D0003FDEE7C2E1FFE8C2E2FFE66AE5C200F005
:1003E000E6C201F035DEE7C2E1FFE8C2E2FFFF0E40
:1003F000E66EE5C200F0E6C201F02ADE05018A6B76
:100400008B6BE7C2E1FFE8C2E2FFFF0EE66EE5C2DA
:1004100000F0E6C201F01CDE00C089F505018A4B40
:100420008B2B800E0014016E0150000A07E0000EB5
:100430008B5D02E1640E8A5D01E2E3D789AF04D0EF
:1004400092DF89C500F012D0E7C2E1FFE8C2E2FF07
:10045000FF0EE66EE5C200F0E6C201F0F9DD00C075
:0E04600089F50050000AF0E07EDF006A12000D
:10046E006BDF05018B6B8C6B020E8C5D02E1000E57
:10047E008B5D1BE28B5189258D6F8C518A218E6F7E
:10048E00E7C2E1FFE8C2E2FFFF0EE66EE5C200F052
:10049E00E6C201F0D6DD8DC5E1FF8EC5E2FF00C0DC
:1004AE00E6FF05018B4B8C2BDFD7E7C2E1FFE8C2DD
:1004BE00E2FFFF0EE66EE5C200F0E6C201F0C1DD1E
:1004CE00E7C2E1FFE8C2E2FFFF0EE66EE5C200F012
:0804DE00E6C201F0B6DD1200D8
:1004E6002DDF000E000A02E1040E3C1809E189C561
:1004F6008DF58AC58EF58BC58FF58CC590F514D014
:10050600090E006E89C58DF58AC58EF58BC58FF5EA
:100516008CC590F5005008E005018D378D918E371A
:100526008F379037FF0FF7D70501120E976F8DC5DE
:1005360098F58EC599F58FC59AF590C59BF5FF0E72
:100546009C6F93DE005204E00BDF010E006E01D0BB
:04055600006A120025
:10055A00F3DE000E000A02E1040E3C1809E189C527
:10056A0091F58AC592F58BC593F58CC594F514D08F
:10057A00090E006E89C591F58AC592F58BC593F56A
:10058A008CC594F5005008E0050191379191923796
:10059A0093379437FF0FF7D70501110E976F91C55F
:1005AA0098F592C599F593C59AF594C59BF5FF0EF2
:1005BA009C6F59DE005204E0D1DE010E006E4BD072
:1005CA00E7C2E1FFE8C2E2FFFF0EE66EE5C200F015
:1005DA00E6C201F038DD0050FE0A01E0F1D705015C
:1005EA008F6B906B020E905D02E1000E8F5D1BE235
:1005FA008F518D25956F90518E21966FE7C2E1FF3D
:10060A00E8C2E2FFFF0EE66EE5C200F0E6C201F0C4
:10061A001ADD95C5E1FF96C5E2FF00C0E6FF0501B8
:10062A008F4B902BDFD7E7C2E1FFE8C2E2FFFF0E54
:10063A00E66EE5C200F0E6C201F005DDE7C2E1FFC1
:10064A00E8C2E2FFFF0EE66EE5C200F0E6C201F084
:08065A00FADC84DE006A1200E4
:10066200025006180E6E086A096A0B6A0350076484
:1006720024EF04F006500A6E068E028E03500B6EB3
:100682000750036E000E0B6474EF03F00B50075E0D
:10069200D8B415EF04F0070E0764E3EF03F0075E2A
:1006A20000C008F001C000F002C001F0026A074E6B
:1006B20015EF04F00764B8EF03F0075E00C008F01E
:1006C20001C000F0016A074E15EF04F0076496EFCF
:1006D20003F0075E00C008F0006A074E15EF04F051
:1006E20007647DEF03F00AC002F005C001F004C008
:1006F20000F0086A41EF05F0030E076488EF03F08B
:10070200075E08380F0B086E074E15EF04F0D890FD
:100712000832074E15EF04F0D8900832074E15EF55
:1007220004F0D890083215EF04F0030E0764A7EF27
:1007320003F0075E08380F0B086E0038F00B08262E
:1007420000380F0B006E074E15EF04F0D890003200
:100752000832074E15EF04F0D89000320832074EE7
:1007620015EF04F0D8900032083215EF04F0030EB2
:100772000764CFEF03F0075E08380F0B086E0038EE
:10078200F00B082600380F0B006E0138F00B002624
:1007920001380F0B016E074E15EF04F0D8900132AD
:1007A20000320832074E15EF04F0D89001320032C1
:1007B2000832074E15EF04F0D890013200320832A9
:1007C20015EF04F0030E076400EF04F0075E08382B
:1007D2000F0B086E0038F00B082600380F0B006E66
:1007E2000138F00B002601380F0B016E0238F00BB6
:1007F200012602380F0B026E074E15EF04F0D89057
:100802000232013200320832074E15EF04F0D8905E
:100812000232013200320832074E15EF04F0D8904E
:100822000232013200320832096A000E0EAE09EFBE
:1008320005F0081E001E011E021E082A00220122C7
:10084200022209EF05F00750D8A42AEF04F041EF85
:1008520005F0096A02C00AF0028E068E0750035C98
:10086200076ED8B4FCEF04F0070E0764CAEF04F079
:10087200075E0450096E0550046E0650056E066A46
:10088200074EFCEF04F0070E07649FEF04F0075ECB
:100892000450096E0550046E056A074EFCEF04F021
:1008A200070E07647DEF04F0075E0450096E046AC8
:1008B200074EFCEF04F0070E076464EF04F00AC071
:1008C20002F041EF05F0030E07646FEF04F0075EDC
:1008D20009380F0B096E074EFCEF04F0D89009326D
:1008E200074EFCEF04F0D8900932074EFCEF04F0FB
:1008F200D8900932FCEF04F0030E07648EEF04F087
:10090200075E09380F0B096E0438F00B092604380C
:100912000F0B046E074EFCEF04F0D890043209323C
:10092200074EFCEF04F0D89004320932074EFCEF78
:1009320004F0D89004320932FCEF04F0030E07648D
:10094200B6EF04F0075E09380F0B096E0438F00B9E
:10095200092604380F0B046E0538F00B04260538FF
:100962000F0B056E074EFCEF04F0D89005320432EF
:100972000932074EFCEF04F0D890053204320932F6
:10098200074EFCEF04F0D890053204320932FCEF36
:1009920004F0030E0764E7EF04F0075E09380F0B5B
:1009A200096E0438F00B092604380F0B046E053863
:1009B200F00B042605380F0B056E0638F00B0526E2
:1009C20006380F0B066E074EFCEF04F0D890063285
:1009D200053204320932074EFCEF04F0D890063299
:1009E200053204320932074EFCEF04F0D890063289
:1009F200053204320932086A000E0EAE09EF05F024
:100A0200091E041E051E061E092A042205220622AC
:100A120009500826045000220550012206500222E5
:100A22000EBE20EF05F0D8A02FEF05F00232013202
:100A320000320832033E2FEF05F03BEF05F0D8B04D
:100A420035EF05F0000E081E001E011E021E082AC8
:100A52000022012202220A7E35EF05F0010E0C6E01
:100A620047EC00F043EF05F0020E0C6E47EC00F08D
:100A720043EF05F0040E0C6E3BEC00F043EF05F083
:060A8200000E0C6E1200D4
:100A88000B800BAE50EF05F0026A0AAEFF0E026E45
:0C0A9800016E006E0A360232FF0E1200E2
:100AA4004EDC000E000A02E1040E3C1809E189C57F
:100AB40091F58AC592F58BC593F58CC594F514D040
:100AC400090E006E89C591F58AC592F58BC593F51B
:100AD4008CC594F5005008E0050191379191923747
:100AE40093379437FF0FF7D70501180E976F91C509
:100AF40098F592C599F593C59AF594C59BF5FF0EA3
:100B04009C6F38EC01F0005204E02BDC010E006E07
:100B140095D0E7C2E1FFE8C2E2FFFF0EE66EE5C250
:100B240000F0E6C201F028EC00F0E7C2E1FFE8C201
:100B3400E2FFFF0EE66EE5C200F0E6C201F028EC2B
:100B440000F0E7C2E1FFE8C2E2FFFE0EE66EE5C296
:100B540000F0E6C201F028EC00F005018F6B906B09
:100B64009051010802E18F51FF0816E38F518D2542
:100B7400E96E90518E21EA6EE7C2E1FFE8C2E2FF1E
:100B8400EECFE6FFE5C200F0E6C201F028EC00F08B
:100B940005018F4B902BE4D7E7C2E1FFE8C2E2FFE7
:100BA400FF0EE66EE5C200F0E6C201F028EC00F0AC
:100BB400E7C2E1FFE8C2E2FFFF0EE66EE5C200F025
:100BC400E6C201F028EC00F0E7C2E1FFE8C2E2FF70
:100BD400FF0EE66EE5C200F0E6C201F028EC00F07C
:100BE40000C08FF5000E0501906F1F0E8F15016E6A
:100BF40090C502F0000E021601C08FF502C090F5F8
:100C0400000E021802E1050E011805E0B3EC01F034
:100C1400020E006E13D0E7C2E1FFE8C2E2FFFF0E4E
:100C2400E66EE5C200F0E6C201F028EC00F00050E8
:0E0C3400FF0A01E0F0D7B3EC01F0006A1200F5
:100C4200086A096A100E0C6E01340836093604501F
:100C5200085E0550D8A0053C095ED8B007D0045004
:100C620008260550D8B0053C0926D8900036013632
:060C72000C2EEAD712006F
:100C780089C5E9FF8AC5EAFFEE5211E089C5E9FF97
:100C88008AC5EAFF8BC5D9FF8CC5DAFFEE50DE189E
:100C980006E10501894B8A2B8B4B8C2BE9D789C53B
:100CA800E9FF8AC5EAFF8BC5D9FF8CC5DAFFDE509C
:0C0CB800EE5C006E016A000E015A120092
:100CC40005018951200A09E089510D0804E3090E40
:100CD400895D01E302D0006A02D0010E006E1200A9
:100CE40089C502F08AC503F08CC500F08DC501F0FA
:100CF400010E05018C5F000E8D5B0050011009E0B0
:100D040002C0E1FF03C0E2FF8BC5E6FF024A032AEB
:0C0D1400EBD789C500F08AC501F0120081
:100D20008BC504F08CC505F089C502F08AC503F0B7
:100D30008DC500F08EC501F0010E05018D5F000E1E
:100D40008E5B005001100FE004C0E9FF05C0EAFF10
:100D500002C0E1FF03C0E2FFEECFE6FF024A032A32
:100D6000044A052AE5D789C500F08AC501F01200BA
:100D70000B6A0A6A096A00500402F4CF09F0F3CF43
:100D800008F001500502F4CF0BF0F3CF0AF0005049
:100D90000502F3500926F4500A22E86A0B2201509A
:100DA0000402F3500926F4500A22E86A0B2208C014
:100DB00000F009C001F00AC002F00BC003F01200FD
:100DC000010E05018925E96E000E8A21EA6EEECF3B
:100DD00003F0000E046E000E046E03C001F0006A02
:100DE00000C003F001C004F089C5D9FF8AC5DAFF4D
:100DF000DE500026000E012200C003F001C004F006
:0A0E000000C003F001C004F012006E
:100E0A00030E05018925E96E000E8A21EA6EEECFEE
:100E1A0009F0000E0A6E0B6E0C6E000E0A6E0B6E57
:100E2A000C6E0BC003F00AC002F009C001F0006AA0
:100E3A0000C009F001C00AF002C00BF003C00CF0B8
:100E4A00020E8925D96E000E8A21DA6EDE50002440
:100E5A00056E000E0120066E000E0220076E000EBF
:100E6A000320086E05C009F006C00AF007C00BF09F
:100E7A0008C00CF007C003F006C002F005C001F07C
:100E8A00006A00C009F001C00AF002C00BF003C0FA
:100E9A000CF0010E8925D96E000E8A21DA6EDE5019
:100EAA000024056E000E0120066E000E0220076E59
:100EBA00000E0320086E05C009F006C00AF007C03C
:100ECA000BF008C00CF007C003F006C002F005C022
:100EDA0001F0006A00C009F001C00AF002C00BF07C
:100EEA0003C00CF089C5D9FF8AC5DAFFDE50002697
:100EFA00000E01220222032200C009F001C00AF0FA
:100F0A0002C00BF003C00CF000C009F001C00AF0E7
:0A0F1A0002C00BF003C00CF012003F
:100F2400086A096A000E0762036417EF08F00250AA
:100F340006180A6E075003267E0ED8A0A8EF07F005
:100F4400035ED8B01CEF08F0ACEF07F0035ED8A046
:100F540021EF08F0028E068E02C00EF001C00BF0E5
:100F640000C00DF000500402F4CF0CF00150050253
:100F7400F4CF00F0F3CF08F00402F3500C26F45041
:100F84000822000E00220D500502F3500C26F450E6
:100F94000822000E002202500402F3500826F450E6
:100FA400002202500502016A000E0122F3500026BD
:100FB400F45001220D500602F3500826F45000228A
:100FC400026A000E012202220B500602F350002690
:100FD400F4500122000E02220E500602F3500126A4
:100FE400F450022202BEFFEF07F008360036013645
:100FF40002360306D8B421EF08F012EF08F0D880C7
:10100400800E08640030000E002201220222D8A0C3
:1010140012EF08F0023201320032034A1CEF08F0EA
:101024000AAE029E000E24EF08F0010E34EC00F02C
:1010340024EF08F0020E3BEC00F024EF08F0040E5D
:061044001BEC00F012009D
:08104A000B6A0B86FF0E120079
:101052000A6A0350D8A40A800750D8A40A820A5008
:10106200D8B48CEF08F0030AD8B445EF08F00AB000
:1010720040EF08F006AE8AEF08F088EF08F002AE03
:1010820088EF08F08AEF08F00250800B0A6E029E89
:101092000650800B069E0A18D8B456EF08F00A5084
:1010A200D8B488EF08F08AEF08F00750035CD8B490
:1010B20060EF08F0D8A07CEF08F082EF08F006504D
:1010C200025CD8B46AEF08F0D8A07CEF08F082EF97
:1010D20008F00550015CD8B474EF08F0D8A07CEF9A
:1010E20008F082EF08F00450005CD8B48CEF08F0EE
:1010F200D8B082EF08F00A52D8B48AEF08F088EF2D
:1011020008F00A52D8B488EF08F08AEF08F0D880C5
:0E1112001200D8901200D880D884120012006B
:0A112000210E0D6E0D2EFED71200F9
:10112A00780E05017E6F050E7F6F030E7E25D96E40
:10113A00000E7F21DA6EDE507C25016E000E7D21C5
:10114A00026E01C07CF502C07DF5800E0218006EA9
:10115A00800E005C02E1000E015C05E2006A016A91
:10116A00026A036A3ED0800E006E800E7D19005C12
:10117A0002E17C51FF0825E2046A056A066A076AE9
:10118A0078C500F079C501F07AC502F07BC503F095
:10119A005BDF010ED8B0000E006E005209E0FF0EB0
:1011AA00006EFF0E016EFF0E026EFF0E036E19D067
:1011BA00FF0E006EFF0E016E7F0E026EFF0E036EB3
:1011CA0010D0030E7E25E16E000E7F21E26E7CC5F3
:1011DA00E6FF78C500F079C501F07AC502F07BC553
:0411EA0003F01200FC
:1011EE00780E046E050E056E030E0424E96E000ED5
:1011FE000520EA6E7E0EEE5C006E016A000E015A4C
:10120E007CC5E1FF7DC5E2FF00C0E6FF01C0E6FF41
:10121E00030E0424E16E000E0520E26E7E0EE66ED5
:10122E0078C500F079C501F07AC502F07BC503F0F0
:02123E0012009C
:1012400054C404F055C405F078C500F079C501F028
:10125000F8DC00C080F501C081F5000E0501826F49
:10126000836F0401485105018025006E0401495136
:1012700005018121016E04014A5105018221026E9E
:1012800004014B5105018321036E00C080F501C0AC
:1012900081F502C082F503C083F5010E0201CA6F19
:1012A00000C089F501C08AF502C08BF503C08CF53A
:1012B000CA0E05018D6F000E8E6FADEC02F000526C
:1012C00008E0100E04013C6FFF0E006EFF0E016E71
:1012D0008ED054C404F055C405F078C500F079C52B
:1012E00001F0AFDC08C000F009C001F000C07EF5DD
:1012F00001C07FF500C002F001C003F00236029089
:10130000033602C07EF503C07FF5CA0E0224E16EEB
:10131000000E0320E26E7AC5E6FF010E05017E2570
:10132000006E000E7F21016ECA0E0024E16E000ED9
:101330000120E26E7BC5E6FF80C589F581C58AF58F
:1013400082C58BF583C58CF5CA0E8D6F000E8E6F2E
:1013500052EC05F0005208E0050E04013C6FFF0E50
:10136000006EFF0E016E43D0010E05017C6F000E72
:101370007D6F000E7D5D04E10401435105017C5D3C
:1013800034E20401465105018025006E04014751F5
:1013900005018121016E000E8221026E000E832163
:1013A000036E00C080F501C081F502C082F503C064
:1013B00083F500C089F501C08AF502C08BF503C032
:1013C0008CF5CA0E8D6F000E8E6F52EC05F0005238
:1013D00008E0050E04013C6FFF0E006EFF0E016E6B
:1013E00006D005017C4B7D2BC4D7006A016A120030
:1013F000220E0C6E086A096A0A6A0B6A0C06D8B4D7
:101400001FD0D8900B320A3209320832033202322E
:1014100001320032D8A0F2D70C06D8B409D004505B
:1014200008260550092206500A2207500B22EAD747
:10143000045008260550092206500A2207500B22A4
:02144000120098
:101442000450000A12E10550000A0FE10650000A9A
:101452000CE10750000A09E1FF0E006EFF0E016E5B
:101462007F0E026EFF0E036EA7D0086A096A07504C
:10147200D8B4CCEF0AF00350D8B4D0EF0AF002503F
:1014820006180A6E028E068E0E6A02C008F001C0AD
:101492000CF000C00DF004500D5E0550D8A0053CC4
:1014A2000C5E0650D8A0063C085E086A0C6A0D6AFB
:1014B200D8A063EF0AF0D89002320132003208322B
:1014C200010E0E6E0750035ED8A070EF0AF07E0E7A
:1014D2000E240326D8B0D5EF0AF076EF0AF07E0E7E
:1014E2000E240326D8A0DAEF0AF0180E0B6E0D3682
:1014F2000C3608360036013602360E360450005ECF
:101502000550D8A0053C015E0650D8A0063C025EFC
:1015120006340E120EA091EF0AF00D809CEF0AF035
:10152200045000260550D8B0053C01260650D8B01C
:10153200062802260D900B2E78EF0AF0C2EF0AF071
:10154200D8900036013602360E360450005E055041
:10155200D8A0053C015E0650D8A0063C025E0634C7
:101562000E10010B0D26D8B00C2AD8B4082AD8A424
:10157200C2EF0AF008320C320D32032AD8B4D5EF8A
:101582000AF00AAE089E0850026E0C50016E0D5011
:10159200006EDDEF0AF0010E57DDDDEF0AF0020EFC
:1015A20034EC00F0DDEF0AF0040E3BEC00F0DDEF6E
:0A15B2000AF0080E1BEC00F0120016
:1015BC000F0E0C6E470E0D6E0D2EFED70C2EFCD79B
:0615CC0000000000120007
:0615D20000000000120001
:1015D8007A0E0501856F050E866F78C587F579C582
:1015E80088F57A0E896F050E8A6F200E8B6F0B0EA9
:1015F8008C6F000E8D6F72EC06F078C5E9FF79C527
:10160800EAFFEE520DE078C5E9FF79C5EAFFEECFB3
:1016180089F562EC06F0005203E0784B792BEDD7A0
:1016280078C589F579C58AF55B0E8B6F000E8C6FCE
:101638003CEC06F0000E011802E1000E001806E16D
:101648002E0E05017A6F2E0E7B6F60D0050178C5CE
:1016580089F579C58AF55E0E8B6F000E8C6F3CECB0
:1016680006F0000E011802E1000E001804E12E0E2B
:1016780005017A6F4BD078C5E9FF79C5EAFFEE52CC
:1016880020E078C5E9FF79C5EAFFEECF89F562EC7D
:1016980006F0005216E178C5E9FF79C5EAFFEE5079
:1016A8002E0A0FE078C5E9FF79C5EAFF85C5E1FF95
:1016B80086C5E2FFEECFE6FF854B862B784B792B6C
:1016C800DAD778C5E9FF79C5EAFFEE502E0A03E1BB
:1016D8000501784B792B0501820E856F050E866F03
:1016E80078C5E9FF79C5EAFFEE5020080FE278C512
:1016F800E9FF79C5EAFF85C5E1FF86C5E2FFEECFC0
:10170800E6FF854B862B784B792BEAD787C589F579
:1017180088C58AF57A0E8B6F050E8C6F0B0E8D6F50
:0A172800000E8E6F90EC06F0120028
:101732007FC500F080C501F0000E050180BFFF0EDD
:10174200026E036E00360090013602360336003612
:1017520000900136023603367C510024F66E7D512C
:101762000120F76E7E510220F86E0900F5CF81F557
:101772000900F5CF82F50900F5CF83F50900F5CF11
:1017820084F57F51801149E078C500F079C501F0F8
:101792007AC502F07BC503F081C504F082C505F06D
:1017A20083C506F084C507F092EC07F0010E7F5F57
:1017B200000E805B7FC504F080C505F0000E80BF7F
:1017C200FF0E066E076E043604900536063607369F
:1017D200043604900536063607367C510424F66E2C
:1017E2007D510520F76E7E510620F86E0900F5CF77
:1017F20004F00900F5CF05F00900F5CF06F0090065
:10180200F5CF07F031EC03F000C081F501C082F59D
:1018120002C083F503C084F5B4D781C500F082C548
:0C18220001F083C502F084C503F0120041
:10182E0078C502F079C503F002C000F003C001F0E4
:10183E00024A032A00C0E9FF01C0EAFFEE5201E0AE
:10184E00F3D705017851025C006E79510358016E91
:0A185E00010E005E000E015A120098
:10186800050178517A0804E3610E785DD8B0789B59
:0618780078C500F012002B
:10187E00046A056A066A076A78C500F079C501F040
:10188E007AC502F07BC503F029EC08F0010ED8B042
:10189E00000E006E00520EE0000E05017819006E6B
:1018AE00000E7919016E800E7A19026E000E7B19E8
:1018BE00036E08D078C500F079C501F07AC502F044
:0618CE007BC503F01200CF
:1018D40003500718D8A47EEF0CF002500618D8A4C1
:1018E4007EEF0CF001500518D8A47EEF0CF00050E8
:0E18F4000418D8B4D8841200D8941200120040
:1019020046C400F047C401F054C404F055C405F0C5
:10191200B8EC06F000C078F501C079F5020E0501B9
:101922007A6F000E7B6F54C404F055C405F0020EAA
:10193200006E000E016E21EC06F000C07CF501C0C5
:101942007DF5000E7E6F7F6F0401485105017C27F3
:101952000401495105017D2304014A5105017E23F9
:1019620004014B5105017F2354C404F055C405F012
:10197200020E006E000E016E21EC06F008C000F0AF
:1019820009C001F000C002F001C003F0023602906B
:101992000336CA0E0224806F000E0320816F7CC5BD
:1019A20089F57DC58AF57EC58BF57FC58CF573EC0F
:1019B20002F0010E0201CA6FCA0E0501896F000E04
:1019C2008A6F37EC02F0050179517B5D02E17851B3
:1019D2007A5D2EE280C5E9FF81C5EAFFEECF01F014
:1019E200EECF02F0000E021802E1000E011801E132
:1019F2001FD0020E8025016E000E8121026E01C0F1
:101A020080F502C081F57A4B7B2B025004019119BB
:101A120002E1905101180BE1CA0E0501806F000E20
:101A2200816FCA0E896F000E8A6F37EC02F0CBD736
:101A3200C0EC01F0005208E0100E04013C6FFF0EF2
:101A4200006EFF0E016E10D005017B51791902E183
:101A520078517A1905E1FF0E006EFF0E016E04D077
:0A1A62007AC500F07BC501F0120008
:101A6C007CC501F07DC502F0010E05017C5F000E06
:101A7C007D5B000E021802E1000E01181FE078C514
:101A8C00E9FF79C5EAFF7AC5D9FF7BC5DAFFEE50CD
:101A9C00DE180FE078C5E9FF79C5EAFF7AC5D9FFF2
:101AAC007BC5DAFFDE50EE5C006E016A000E015A57
:101ABC0007D0784B792B7A4B7B2BD2D7006A016AF3
:021ACC00120006
:101ACE0078C57CF579C57DF57AC57EF57BC57FF544
:101ADE000501806B816B000E815D02E1080E805D59
:101AEE0019E27CC5E9FF7DC5EAFFEE50200A01E14F
:101AFE0011D07CC5E9FF7DC5EAFF7EC5E1FF7FC53C
:101B0E00E2FFEECFE6FF7E4B7F2B7C4B7D2B804B97
:101B1E00812BE1D7080E7825016E000E7921026E19
:101B2E0001C07CF502C07DF501C0E9FF02C0EAFFED
:101B3E00EE50200A29E07EC5E1FF7FC5E2FF2E0EA2
:101B4E00E66E7E4B7F2B806B816B000E815D02E11A
:101B5E00030E805D19E27CC5E9FF7DC5EAFFEE50FC
:101B6E00200A01E111D07CC5E9FF7DC5EAFF7EC5E3
:101B7E00E1FF7FC5E2FFEECFE6FF7E4B7F2B7C4B76
:101B8E007D2B804B812BE1D77EC5E1FF7FC5E2FF28
:101B9E00E66A0D0E7A25E16E000E7B21E26E0B0ECB
:101BAE007825E96E000E7921EA6EEECFE6FF1A0E69
:101BBE007A25826F000E7B21836F1C0E7825896F2C
:101BCE00000E79218A6F05EC07F082C5E1FF83C50F
:101BDE00E2FF00C0E6FF01C0E6FF02C0E6FF03C061
:101BEE00E6FF1E0E7A25826F000E7B21836F1A0E82
:101BFE007825896F000E79218A6FE0EC06F082C598
:101C0E00E1FF83C5E2FF00C0E6FF01C0E6FF0E0E56
:101C1E007825006E000E7921016E00C0E9FF01C02B
:101C2E00EAFFEECF04F0010E0024E96E000E012053
:101C3E00EA6EEECF03F003C001F0006A04500024F8
:101C4E00036E000E0120046E03C080F504C081F502
:101C5E000E0E7A25006E000E7B21016E030E0024FF
:101C6E00E16E000E0120E26E0B0E026E03C000F05C
:101C7E0004C001F0025005E001320032019EFF0F58
:101C8E00FAD700C0E6FF0E0E7A25006E000E7B21FD
:101C9E00016E040E0024E16E000E0120E26E050EB0
:101CAE00026E80C500F081C501F0025005E00132E0
:101CBE000032019EFF0FFAD73F0E0014006E00C0D7
:101CCE00E6FF0E0E7A25006E000E7B21016E050ECC
:101CDE000024E16E000E0120E26E1F0E8015026ED2
:101CEE0002C000F00036009000C0E6FF100E78250E
:101CFE00006E000E7921016E00C0E9FF01C0EAFFFF
:101D0E00EECF04F0010E0024E96E000E0120EA6E03
:101D1E00EECF03F003C001F0006A04500024026EFF
:101D2E00000E0120036E02C080F503C081F50E0E79
:101D3E007A25006E000E7B21016E020E0024E16EEC
:101D4E00000E0120E26E1F0E0214006E00C0E6FFB0
:101D5E000E0E7A25006E000E7B21016E010E002400
:101D6E00E16E000E0120E26E050E026E80C500F0DF
:101D7E0081C501F0025005E001320032019EFF0FD5
:101D8E00FAD70F0E0014006E00C0E6FF0E0E7A2575
:101D9E00E16E000E7B21E26E090E026E80C500F030
:101DAE0081C501F0025005E001320032019EFF0FA5
:101DBE00FAD700C0E6FF160E7825006E000E7921C8
:101DCE00016E00C0E9FF01C0EAFFEECF04F0010E84
:101DDE000024E96E000E0120EA6EEECF03F003C080
:101DEE0001F0006A04500024036E000E0120046E00
:101DFE0003C080F504C081F5140E7A25006E000E26
:101E0E007B21016E030E0024E16E000E0120E26EB6
:101E1E000B0E026E03C000F004C001F0025005E08C
:101E2E0001320032019EFF0FFAD700C0E6FF140EFA
:101E3E007A25006E000E7B21016E040E0024E16EE9
:101E4E00000E0120E26E050E026E80C500F081C507
:101E5E0001F0025005E001320032019EFF0FFAD769
:101E6E003F0E0014006E00C0E6FF140E7A25006EC1
:101E7E00000E7B21016E050E0024E16E000E012086
:101E8E00E26E1F0E8015026E02C000F0003600904A
:101E9E0000C0E6FF180E7825006E000E7921016E47
:101EAE0000C0E9FF01C0EAFFEECF04F0010E0024EE
:101EBE00E96E000E0120EA6EEECF03F003C001F0D2
:101ECE00006A04500024026E000E0120036E02C050
:101EDE0080F503C081F5140E7A25006E000E7B216D
:101EEE00016E020E0024E16E000E0120E26E1F0E46
:101EFE000214006E00C0E6FF140E7A25006E000E6E
:101F0E007B21016E010E0024E16E000E0120E26EB7
:101F1E00050E026E80C500F081C501F0025005E08D
:101F2E0001320032019EFF0FFAD70F0E0014006E21
:101F3E0000C0E6FF140E7A25E16E000E7B21E26EE4
:101F4E00090E026E80C500F081C501F0025005E059
:101F5E0001320032019EFF0FFAD700C0E6FF1200D9
:081F6E00067E31EC03F01200C5
:101F76000050086E0150006E0250016E0350026E52
:101F8600036A0B6A0C6A9E0E036E0A6A02AED8EFEB
:101F96000FF0081E001E011E021E082AD8B4002AD1
:101FA600D8B4012AD8B4022A0A8E020E0C6E47EC67
:041FB60000F0120025
:101FBA000B6A0C6A086A0350D8B461EF10F002C0C9
:101FCA000AF0028E9E0E035E03AE51EF10F0036C10
:101FDA00080E035CD8A01EEF10F0036E083600C08E
:101FEA0008F001C000F002C001F0026A080E035CAA
:101FFA00D8A01EEF10F0036E083600C008F001C02A
:10200A0000F0016A080E035CD8A01EEF10F0036E00
:10201A00083600C008F0006A080E035CD8A01EEF5C
:10202A0010F0036E0836086A0350D8A4D8902AEF35
:10203A0010F00350D8B42AEF10F0D89002320132CF
:10204A0000320832032E22EF10F00BBC08A03BEF3F
:10205A0010F0D8A03BEF10F0082AD8B4002AD8B460
:10206A00012AD8B4022A02BE65EF10F00AAE61EF67
:10207A0010F0021E011E001E081E082AD8B4002AEB
:10208A00D8B4012AD8B4022A61EF10F0026A016AB0
:10209A00006A086A61EF10F00B800BAE6CEF10F06B
:1020AA00026A0AAE6CEF10F0026E016E006E086EE4
:1020BA000A3602326CEF10F00C6A000E6DEF10F067
:1020CA00010E0C6E000E44EC05F06DEF10F0FF0EE1
:1020DA000250036E0150026E0050016E0850006EED
:0220EA001200E2
:1020EC0067C504F068C505F069C506F06AC507F058
:1020FC00006A016A026A036A29EC08F0000ED8B083
:10210C00010E006E005205E0006A016A026A036A61
:10211C00F4D067C56BF568C56CF569C56DF56AC516
:10212C006EF5000E046E000E056E000E066E7F0E30
:10213C00076E67C500F068C501F069C502F06AC595
:10214C0003F029EC08F0010ED8B0000E006E00521E
:10215C001AE06BC504F06CC505F06DC506F06EC5D4
:10216C0007F0000E006E000E016E000E026E7F0E68
:10217C00036E21EC0AF000C06BF501C06CF502C0D7
:10218C006DF503C06EF56BC578F56CC579F56DC54D
:10219C007AF56EC57BF5740E05017C6F050E7D6FAF
:1021AC00F7EC08F000C06BF501C06CF502C06DF5E2
:1021BC0003C06EF500C078F501C079F502C07AF560
:1021CC0003C07BF574C57CF575C57DF57D337C331B
:1021DC007D9F7DBD7D8F95EC08F000C06BF501C037
:1021EC006CF502C06DF503C06EF5000E046E000EAA
:1021FC00056E000E066E7F0E076E67C500F068C593
:10220C0001F069C502F06AC503F029EC08F0010E73
:10221C00D8B0000E006E00521AE06BC504F06CC50D
:10222C0005F06DC506F06EC507F0000E006E000ED1
:10223C00016E000E026E7F0E036E21EC0AF000C0E0
:10224C006BF501C06CF502C06DF503C06EF5140E94
:10225C000501736F6BC504F06CC505F06DC506F018
:10226C006EC507F067C500F068C501F069C502F0DE
:10227C006AC503F021EC0AF06BC504F06CC505F0DF
:10228C006DC506F06EC507F031EC03F0000E046E60
:10229C00000E056E000E066E800E076E21EC0AF025
:1022AC0000C06FF501C070F502C071F503C072F586
:1022BC006BC504F06CC505F06DC506F06EC507F076
:1022CC006AEC0CF0010ED8A4000E006E005201E076
:1022DC000CD06FC56BF570C56CF571C56DF572C51D
:1022EC006EF5050173077353B5E16BC500F06CC552
:0C22FC0001F06DC502F06EC503F0120089
:1023080005016751390806E3300E675D03E3010EE6
:08231800006E01D0006A120002
:102320001A0E05016725896F000E68218A6FE0EC9F
:1023300006F06BC5E1FF6CC5E2FF00C0E6FF01C01F
:10234000E6FF6BC5E9FF6CC5EAFFEECF00F0EECF0C
:1023500001F0005001102DE181EC0CF06BC5E1FFA4
:102360006CC5E2FF00C0E6FF01C0E6FF6BC5E9FFF8
:102370006CC5EAFFEECF01F0EECF02F00250FF0A8B
:1023800002E1FF0E011806E1040E04013C6FFF0E8E
:10239000006E7ED16BC5E9FF6CC5EAFFEECF78F524
:1023A000EECF79F5FF0E05017A6FFF0E7B6F20EC03
:1023B00009F06BC5E9FF6CC5EAFFEECF00F0EECF88
:1023C00001F0000E026E036E020E005E000E015A56
:1023D000025A035A3FC404F040C405F0000E066ED2
:1023E000076EF8EC09F069C5E1FF6AC5E2FF00502D
:1023F00004015025E66E01505121E66E0250522133
:10240000E66E03505321E66E3A514F1908E13951F7
:102410004E1905E138514D1902E137514C1905E1CA
:1024200044C46FF545C470F50ED03FC400F040C4FD
:1024300001F035C404F036C405F0B8EC06F000C075
:102440006FF501C070F537C473F538C474F539C43D
:1024500075F53AC476F5CA0E0501716F000E726FFC
:1024600037C489F538C48AF539C48BF53AC48CF57C
:1024700073EC02F0010E0201CA6FCA0E0501896FEA
:10248000000E8A6F37EC02F005016D6B6E6B7051B8
:102490006E5D02E16F516D5DD8B0EBD071C5E9FFA3
:1024A00072C5EAFFEECF01F00150E50A0AE071C5FE
:1024B000E9FF72C5EAFFEECF01F0200E015C01E3F7
:1024C000B1D0C0EC01F0005206E0100E04013C6FE8
:1024D000FF0E006EDDD071C589F572C58AF567C53E
:1024E0008BF568C58CF5200E05018D6F000E8E6F83
:1024F00090EC06F01A0E7125E16E000E7221E26E6C
:102500006BC5E9FF6CC5EAFFFF0EEE14006E00C05C
:10251000E6FF1A0E7125006E000E7221016E010E8B
:102520000024E16E000E0120E26E6BC5E9FF6CC570
:10253000EAFFEECF03F0EECF04F004C000F0016A32
:1025400000C0E6FF0E0E7125E16E000E7221E26EF4
:10255000BDC4E6FF0E0E7125006E000E7221016EE5
:10256000010E0024E16E000E0120E26EBEC4E6FF03
:10257000100E7125E16E000E7221E26E8EC4E6FF30
:10258000100E7125006E000E7221016E010E0024E6
:10259000E16E000E0120E26E8FC4E6FF160E71257B
:1025A000E16E000E7221E26EBDC4E6FF160E7125CB
:1025B000006E000E7221016E010E0024E16E000E0D
:1025C0000120E26EBEC4E6FF180E7125E16E000E1A
:1025D0007221E26E8EC4E6FF180E7125006E000EA9
:1025E0007221016E010E0024E16E000E0120E26EE8
:1025F0008FC4E6FF73C589F574C58AF575C58BF57B
:1026000076C58CF5CA0E8D6F000E8E6F52EC05F0FC
:10261000005206E0050E04013C6FFF0E006E38D03C
:10262000006A36D0200E05017125016E000E722160
:10263000026E01C071F502C072F5025004019119D9
:1026400002E19051011811E1010E05017327000EFE
:10265000742375237623CA0E716F000E726FCA0E33
:10266000896F000E8A6F37EC02F005016D4B6E2BFF
:102670000ED7C0EC01F0005206E0100E04013C6FD2
:10268000FF0E006E05D00401060E3C6FFF0E006EBB
:02269000120036
:10269200050167BF02D0809601D0808667BD02D057
:1026A200809401D0808467BB02D0809201D0808266
:1026B20067B902D0809001D080800201E4B102D0DB
:1026C200808801D08098808AE9EC0AF0809A05011E
:1026D20067B702D0809601D0808667B502D0809419
:1026E20001D0808467B302D0809201D0808267B12A
:1026F20002D0809001D080800201E4B102D08088B3
:1027020001D08098808AE9EC0AF0809AE4A103D093
:0C271200DEEC0AF002D090EC08F012009F
:10271E000501716B726B736B746B6751681103E11A
:10272E00FF0E006EDDD067C578F568C579F5ECEC67
:10273E000AF004013A514F1908E139514E1905E1D9
:10274E0038514D1902E137514C1905E144C46DF56C
:10275E0045C46EF50ED03FC400F040C401F035C440
:10276E0004F036C405F0B8EC06F000C06DF501C0FB
:10277E006EF537C471F538C472F539C473F53AC4C1
:10278E0074F5CA0E05016F6F000E706F37C489F5B0
:10279E0038C48AF539C48BF53AC48CF573EC02F063
:1027AE00010E0201CA6FCA0E0501896F000E8A6FF3
:1027BE0037EC02F005016B6B6C6B6E516C5D02E1D8
:1027CE006D516B5DD8B080D06FC578F570C579F559
:1027DE0067C57AF568C57BF50B0E7C6F000E7D6FB5
:1027EE0036EC0DF0000E011802E1000E001845E166
:1027FE00C0EC01F0005206E0100E04013C6FFF0E1B
:10280E00006E6ED0050169516A1135E06FC578F51D
:10281E0070C579F569C57AF56AC57BF567EC0DF07B
:10282E00200E6925E16E000E6A21E26E71C5E6FF8B
:10283E0072C5E6FF73C5E6FF74C5E6FF240E692573
:10284E00E16E000E6A21E26ECA0E6F5D036E000E1F
:10285E007059046E050E026E03C000F004C001F044
:10286E00025005E001320032019EFF0FFAD700C080
:10287E00E6FF01C0E6FF006A33D00501200E6F258A
:10288E00016E000E7021026E01C06FF502C070F570
:10289E0002500401911902E19051011811E1010E4B
:1028AE0005017127000E722373237423CA0E6F6FF6
:1028BE00000E706FCA0E896F000E8A6F37EC02F031
:1028CE0005016B4B6C2B79D7C0EC01F0005206E082
:1028DE00100E04013C6FFF0E006E02D0FF0E006E54
:0228EE001200D6
:1028F000086A080E0C6E003408360450085ED8B022
:0E29000002D00826D89000360C2EF5D7120013
:10290E0067C578F568C579F517EC0CF000C069F568
:10291E000050000A03E1FF0E006E5BD069510C08F7
:10292E0003E2FE0E006E55D067C5D9FF68C5DAFF0B
:10293E002E0EDE1803E1FD0E006E4BD06B6B67C5DD
:10294E006CF568C56DF569C56AF56A51000820E237
:10295E006A516725D96E000E6821DA6E2E0EDE18CA
:10296E0015E1010E6B6F6A51080803E2FC0E006E52
:10297E0030D06A51010F006E016A000E0122005024
:10298E0067256C6F015068216D6F02D06A07DDD725
:10299E00010E6B1906E06951080803E2FB0E006E8A
:1029AE0018D0010E6B1914E16CC578F56DC579F56B
:1029BE0017EC0CF000C069F50050000A03E1F50EAB
:1029CE00006E07D06951030803E2F40E006E01D0C9
:0429DE00006A120079
:1029E2000D6A086A0050D8B4000C04180A6E0ABEB8
:1029F2000D1E0B6A04AE02D0041E042A00AE02D0E1
:102A0200001E002A005004100A6E0ABE1FD0045095
:102A1200085E003600340836045008260036060EDA
:102A22000C6E00340836045000B0085E00A0082680
:102A320000360C2EF6D700A008260BB015D00DAE2E
:102A4200000C001E002A081E082A000C04AE09D041
:102A520000BE04D00050086E006AF1D7006A002A56
:102A6200000C001E0B2AD3D7082A0450085CD8A4F5
:0E2A7200E6D7086A002A00AEE2D7FF0C120079
:102A80006AC500F0016A026A036AFF0E0016000EB2
:102A9000011600C06FF501C070F57F0E005C026E7C
:102AA000000E0158036E02C06FF503C070F5800E72
:102AB0000318006E800E005C02E1000E025C22E250
:102AC000046A056A066A076A67C500F068C501F00E
:102AD00069C502F06AC503F029EC08F0010ED8B010
:102AE000000E006E005209E0000E006E000E016E36
:102AF000800E026E7F0E036E5ED0006A016A026A6B
:102B0000036A59D0000E006E05017051005C02E1AD
:102B10006F51180809E267C500F068C501F069C582
:102B200002F06AC503F047D067C500F068C501F040
:102B300069C502F06AC503F0DDEC0FF0BBEC0FF0E5
:102B400000C06BF501C06CF502C06DF503C06EF5F9
:102B500000C004F001C005F002C006F003C007F099
:102B600067C500F068C501F069C502F06AC503F0E9
:102B700029EC08F0010ED8B0000E006E005213E0F0
:102B8000000E046E000E056E000E066E7F0E076EC0
:102B90006BC500F06CC501F06DC502F06EC503F0A9
:102BA000B7EC0FF008D06BC500F06CC501F06DC537
:082BB00002F06EC503F01200F3
:102BB80005016B6B0D0E6B5D18E26B5167256C6F31
:102BC800000E68216D6F6B516925E96E000E6A2150
:102BD800EA6EEECF78F534EC0CF06CC5E1FF6DC50C
:0C2BE800E2FF00C0E6FF6B2BE5D71200F7
:102BF40067C578F568C579F569C57AF56AC57BF561
:102C04003FEC0CF000C070F501C071F502C072F524
:102C140003C073F5046A056A066A076A6AEC0CF075
:102C2400010ED8A4000E006E005205E0006A016A8D
:102C3400026A036AF9D070C504F071C505F072C563
:102C440006F073C507F0000E006E000E016E000E54
:102C5400026E7F0E036E29EC08F0010ED8B0000E50
:102C6400006E00C06FF500521AE070C504F071C523
:102C740005F072C506F073C507F0000E006E000E75
:102C8400016E000E026E7F0E036E21EC0AF000C08E
:102C940070F501C071F502C072F503C073F570C51B
:102CA40000F071C501F072C502F073C503F070C580
:102CB40004F071C505F072C506F073C507F092EC17
:102CC40007F000C074F501C075F502C076F503C0C5
:102CD40077F500C078F501C079F502C07AF503C034
:102CE4007BF5120E05017C6F950E7D6F000E7E6FD5
:102CF400050E7F6F000E806F99EC0BF070C504F029
:102D040071C505F072C506F073C507F092EC07F0C3
:102D140000C070F501C071F502C072F503C073F50F
:102D240074C578F575C579F576C57AF577C57BF5FB
:102D34002A0E7C6F950E7D6F000E7E6F040E7F6FE2
:102D4400000E806F99EC0BF000C004F001C005F098
:102D540002C006F003C007F070C500F071C501F0B1
:102D640072C502F073C503F021EC0AF000C070F5DF
:102D740001C071F502C072F503C073F505016F530C
:102D84001AE070C504F071C505F072C506F073C58C
:102D940007F0DB0E006E0F0E016E490E026E7F0E01
:102DA400036EB7EC0FF000C070F501C071F502C0FE
:102DB40072F503C073F5046A056A066A076A67C593
:102DC40000F068C501F069C502F06AC503F029EC9A
:102DD40008F0010ED8B0000E006E00520DE0000E97
:102DE40070196B6F000E71196C6F800E72196D6F14
:102DF400000E73196E6F08D070C56BF571C56CF554
:102E040072C56DF573C56EF56BC570F56CC571F55E
:102E14006DC572F56EC573F56BC500F06CC501F038
:0A2E24006DC502F06EC503F0120048
:102E2E000134083609360450085E0550D8A0053C1A
:102E3E00095E003601360F0E0C6E01340836093667
:102E4E00045000A006D0085E0550D8A0053C095ECF
:102E5E0005D008260550D8B0053C092600360136A7
:102E6E000C2EEBD700B006D0045008260550D8B073
:082E7E00053C092600001200CA
:102E86000501056B066B270E065D02E1100E055D5A
:102E9600D8B0AAD0000E000A02E1000E041918E10B
:102EA600A1EC01F0010E976F986B996B9A6B9B6B77
:102EB600FF0E9C6F38EC01F000C007F5B3EC01F093
:102EC60005010751000A03E13C6A006A8FD089D0E8
:102ED600A1EC01F0370E976F986B996B9A6B9B6B11
:102EE600FF0E9C6F38EC01F000C007F5B3EC01F063
:102EF60005010751010AD8A473D0A1EC01F0290EEF
:102F0600976F000E986F000E996F000E9A6F400E25
:102F16009B6FFF0E9C6F38EC01F000C007F5B3EC19
:102F260001F005010751000A5AE1000E000A02E10C
:102F3600020E041950E1A1EC01F03A0E976F986B5E
:102F4600996B9A6B9B6BFF0E9C6F38EC01F000C07F
:102F560007F5E7C2E1FFE8C2E2FFFF0EE66EE5C253
:102F660000F0E6C201F028EC00F000C008F5E7C268
:102F7600E1FFE8C2E2FFFF0EE66EE5C200F0E6C240
:102F860001F028EC00F0E7C2E1FFE8C2E2FFFF0E25
:102F9600E66EE5C200F0E6C201F028EC00F0E7C2FA
:102FA600E1FFE8C2E2FFFF0EE66EE5C200F0E6C210
:102FB60001F028EC00F0B3EC01F005010751000A1E
:102FC60009E108AD03D0040E3C6E02D0030E3C6E40
:102FD600006A0CD004D0010E3C6E006A07D001D006
:0E2FE60003D0054B062B4FD7010E006E1200D4
:102FF4000B6A0C6A0A6A086A0350D8B482EF18F0A4
:10300400028E9E0E035E03BE0DEF18F0D8B40DEFD2
:1030140018F072EF18F0036C080E035CD8A03FEFB1
:1030240018F0036E083600C008F001C000F002C0BA
:1030340001F0026A080E035CD8A03FEF18F0036E9B
:10304400083600C008F001C000F0016A080E035CF5
:10305400D8A03FEF18F0036E083600C008F0006AED
:10306400080E035CD8A03FEF18F0036E0836086A18
:103074000350D8A4D8904BEF18F00350D8B44BEFBA
:1030840018F0D8900232013200320832032E43EF96
:1030940018F00BBC08A05CEF18F0D8A05CEF18F097
:1030A400082AD8B4002AD8B4012AD8B4022A02BE05
:1030B40086EF18F00AAE82EF18F0021E011E001E01
:1030C400081E082AD8B4002AD8B4012AD8B4022A7F
:1030D40082EF18F0026A016A006A086A82EF18F047
:1030E4000B800BAE8CEF18F0026A0AAE8CEF18F06E
:1030F400026E016E006E086E0A3602328CEF18F012
:10310400000E0C6A8DEF18F0010E0C6E44EC05F005
:103114008DEF18F0FF0E0250036E0150026E005046
:08312400016E0850006E12005C
:10312C00800E05010419006E800E000A005CD8B0F8
:10313C006AD104510008016E01C004F5800E01181B
:10314C00006E800E6E0A005CD8A0BDD0640E046EBA
:10315C0004C500F040DC120E0024056E000E00BE0B
:10316C00FF0E066E000E062205C000F006C001F030
:10317C00000E06BEFF0E026E036E00360090013686
:10318C000236033600360090013602360336320E14
:10319C000024F66E940E0120F76E000E0220F86EDD
:1031AC000900F5CF05F50900F5CF06F50900F5CFB7
:1031BC0007F50900F5CF08F5640E046E04C500F0A0
:1031CC000ADC08C000F00A0E046E05DC090E0024AF
:1031DC00056E000E00BEFF0E066E000E062205C028
:1031EC0000F006C001F0000E06BEFF0E026E036E6C
:1031FC000036009001360236033600360090013658
:10320C0002360336320E0024F66E940E0120F76E51
:10321C00000E0220F86E0900F5CF00F00900F5CF82
:10322C0001F00900F5CF02F00900F5CF03F005C558
:10323C0004F006C505F007C506F008C507F092ECCA
:10324C0007F000C005F501C006F502C007F503C084
:10325C0008F50A0E046E04C500F0F1EC14F008C079
:10326C0000F000C001F0000E00BEFF0E026E036EF7
:10327C00046E013601900236033604360136019095
:10328C00023603360436320E0124F66E940E0220FA
:10329C00F76E000E0320F86E0900F5CF00F0090060
:1032AC00F5CF01F00900F5CF02F00900F5CF03F0DE
:1032BC0005C504F006C505F007C506F008C507F0FE
:1032CC0092EC07F007D2800E0A0A006E800E0419E9
:1032DC00005C71E20A0E046E04C500F0F1EC14F00F
:1032EC00090E0024056E000E00BEFF0E066E000EC9
:1032FC00062205C000F006C001F0000E06BEFF0E4F
:10330C00026E036E0036009001360236033600362C
:10331C000090013602360336320E0024F66E940EFF
:10332C000120F76E000E0220F86E0900F5CF05F5AE
:10333C000900F5CF06F50900F5CF07F50900F5CF23
:10334C0008F50A0E046E04C500F0F1EC14F008C088
:10335C0000F000C001F0000E00BEFF0E026E036E06
:10336C00046E0136019002360336043601360190A4
:10337C00023603360436320E0124F66E940E022009
:10338C00F76E000E0320F86E0900F5CF00F009006F
:10339C00F5CF01F00900F5CF02F00900F5CF03F0ED
:1033AC0005C504F006C505F007C506F008C507F00D
:1033BC0092EC07F08FD104C500F0000E04BFFF0E95
:1033CC00016E026E036E0036009001360236033633
:1033DC0000360090013602360336320E0024F66EAB
:1033EC00940E0120F76E000E0220F86E0900F5CF46
:1033FC0000F00900F5CF01F00900F5CF02F009004B
:10340C00F5CF03F067D1800E0419006E800E6E0AA2
:10341C00005CD8A0C0D0640E046E04C500F0F1ECC2
:10342C0014F0120E0024056E000E00BEFF0E066E88
:10343C00000E062205C000F006C001F0000E06BE0C
:10344C00FF0E026E036E0036009001360236033614
:10345C0000360090013602360336660E0024F66EF6
:10346C00940E0120F76E000E0220F86E0900F5CFC5
:10347C0005F50900F5CF06F50900F5CF07F50900AC
:10348C00F5CF08F5640E046E04C500F0F1EC14F0F1
:10349C0008C000F00A0E046EF1EC14F0090E0024C2
:1034AC00056E000E00BEFF0E066E000E062205C055
:1034BC0000F006C001F0000E06BEFF0E026E036E99
:1034CC000036009001360236033600360090013685
:1034DC0002360336660E0024F66E940E0120F76E4B
:1034EC00000E0220F86E0900F5CF00F00900F5CFB0
:1034FC0001F00900F5CF02F00900F5CF03F005C586
:10350C0004F006C505F007C506F008C507F092ECF7
:10351C0007F000C005F501C006F502C007F503C0B1
:10352C0008F50A0E046E04C500F0F1EC14F008C0A6
:10353C0000F000C001F0000E00BEFF0E026E036E24
:10354C00046E0136019002360336043601360190C2
:10355C00023603360436660E0124F66E940E0220F3
:10356C00F76E000E0320F86E0900F5CF00F009008D
:10357C00F5CF01F00900F5CF02F00900F5CF03F00B
:10358C0005C504F006C505F007C506F008C507F02B
:10359C0092EC07F09FD0800E0A0A006E800E041980
:1035AC00005C71E20A0E046E04C500F0F1EC14F03C
:1035BC00090E0024056E000E00BEFF0E066E000EF6
:1035CC00062205C000F006C001F0000E06BEFF0E7C
:1035DC00026E036E0036009001360236033600365A
:1035EC000090013602360336660E0024F66E940EF9
:1035FC000120F76E000E0220F86E0900F5CF05F5DC
:10360C000900F5CF06F50900F5CF07F50900F5CF50
:10361C0008F50A0E046E04C500F0F1EC14F008C0B5
:10362C0000F000C001F0000E00BEFF0E026E036E33
:10363C00046E0136019002360336043601360190D1
:10364C00023603360436660E0124F66E940E022002
:10365C00F76E000E0320F86E0900F5CF00F009009C
:10366C00F5CF01F00900F5CF02F00900F5CF03F01A
:10367C0005C504F006C505F007C506F008C507F03A
:10368C0092EC07F027D004C500F0000E04BFFF0E2B
:10369C00016E026E036E0036009001360236033660
:1036AC0000360090013602360336660E0024F66EA4
:1036BC00940E0120F76E000E0220F86E0900F5CF73
:1036CC0000F00900F5CF01F00900F5CF02F0090078
:0636DC00F5CF03F012001F
:1036E2000450000A08E10550000A05E1FF0E006ED1
:1036F2007F0E016E58D00D6A096A086A01500010E7
:10370200D8B4000C015005180A6E0ABE0D1E0B6AD1
:1037120005AE05D0041E051E042AD8B4052A01AE42
:1037220005D0001E011E002AD8B4012A015005103E
:103732000A6E0ABE10D017EC17F00BB020D00DAEF7
:10374200000C001E011E002AD8B4012A081E091E00
:10375200082AD8B4092A000C05AE0DD001BE07D044
:103762000150096E0050086E016A006AE8D7016ACA
:10377200006A002A000C011E001E0B2ADDD7082A4F
:10378200D8B4092A0450085CD8A4D9D70550095CDA
:10379200D8A4D5D7096A086A002AD8B4012A01AE8A
:0837A200CED70000FF0C12005D
:1037AA0004C567F505C568F587EC14F0005206E014
:1037BA00120E04013C6FFF0E006E04D2940E050136
:1037CA00676F040E686F04C569F505C56AF5DCEC18
:1037DA0015F00401BB51BC1120E01C0E006E000E56
:1037EA00016E3BC404F0000E3BBFFF0E056EB8EC41
:1037FA0006F0560E0024E16E040E0120E26E1C0E45
:10380A00006EA10EE96E040EEA6EEECFE6FF000628
:10381A00FCE1BB6BBC6BFF0E3B6F520E0501896F5F
:10382A00050E8A6F940E8B6F040E8C6F0D0E8D6FC2
:10383A00000E8E6F90EC06F0940E676F040E686FA0
:10384A002C0E696F050E6A6F8FEC13F0800E00184C
:10385A00016E800E000A015C66E2050107AF5DD0C9
:10386A005F6B606B616B626B636B646B580E071501
:10387A00006E06E0080E04013C6FFF0E006EA2D136
:10388A00080E0501896F050E8A6F8B6B200E8C6FEF
:10389A00000E8D6F72EC06F07F0E0715006E00C0E9
:1038AA0013F5080E896F050E8A6F940E8B6F040E3E
:1038BA008C6F0B0E8D6F000E8E6F90EC06F0080E5B
:1038CA00676F050E686F610E696F050E6A6F5F0E8E
:1038DA006B6F050E6C6F90EC11F0800E0018016E84
:1038EA00800E000A015C03E2FF0E006E6BD1520EDD
:1038FA000501676F050E686F2C0E696F050E6A6FFA
:10390A008FEC13F0800E0018016E800E000A015C25
:10391A0003E2FF0E006E56D106D00D0E04013C6F75
:10392A00FF0E006E4FD1580E05013915006E06E0E4
:10393A00080E04013C6FFF0E006E44D10501286B8E
:10394A00296B000E295D02E1020E285D4BE21C0E76
:10395A00006E000E016E28C504F029C505F0B8EC0A
:10396A0006F0560E0026040E012200C02AF501C0F8
:10397A002BF51A0E0024E96E000E0120EA6EEE50B5
:10398A00EE102DE0060E2A25D96E000E2B21DA6ED6
:10399A00DECF01F0DECF02F04B51021802E10150F6
:1039AA004A191DE11A0E2A25E16E000E2B21E26E3C
:1039BA0006C5E6FF000EE66E1C0E006EA10EE16E55
:1039CA00040EE26E2AC5E9FF2BC5EAFFEECFE6FF39
:1039DA000006FCE128C53BF428C500F0F3D0284BCB
:1039EA00292BAFD7286B296B000E295D02E1020E45
:1039FA00285DD8B0E2D01C0E006E000E016E28C5FC
:103A0A0004F029C505F0B8EC06F0560E0026040E9F
:103A1A0001221A0E0024E96E000E0120EA6EEECF92
:103A2A0000F0EECF01F000500110D8A4C2D01C0E55
:103A3A00006E000E016E28C504F029C505F0B8EC29
:103A4A0006F0560E0026040E012200C02AF501C017
:103A5A002BF500C089F501C08AF58B6B1C0E8C6FA3
:103A6A00000E8D6F72EC06F0060E2A25026E000E0D
:103A7A002B21036E0C0E2A25006E000E2B21016EDF
:103A8A0000C0E1FF01C0E2FF4AC5E6FF4BC5E6FF01
:103A9A0000C0E9FF01C0EAFF02C0E1FF03C0E2FF84
:103AAA00EECFE6FFEECFE6FF1A0E2A25E16E000EF4
:103ABA002B21E26E06C5E6FF000EE66E2AC5E1FF7F
:103ACA002BC5E2FF4CC5E6FF4DC5E6FF4EC5E6FF36
:103ADA004FC5E6FF040E2A25E16E000E2B21E26E89
:103AEA00050E026E50C500F051C501F0025005E006
:103AFA00003600900136FF0FFAD700C0E6FF01C07A
:103B0A00E6FF160E2A25E16E000E2B21E26E46C54F
:103B1A00E6FF47C5E6FF48C5E6FF49C5E6FF0E0EC4
:103B2A002A25656F000E2B21666F0C0E2A25E96E79
:103B3A00000E2B21EA6EEECF00F0EECF01F0000E60
:103B4A00026E036E020E005E000E015A025A035AFA
:103B5A003FC404F040C405F0000E066E076EF8EC90
:103B6A0009F00401505100265151012252510222FA
:103B7A005351032265C5E1FF66C5E2FF00C0E6FFB7
:103B8A0001C0E6FF02C0E6FF03C0E6FF1C0E006E9E
:103B9A00A10EE16E040EE26E2AC5E9FF2BC5EAFF0B
:103BAA00EECFE6FF0006FCE128C53BF428C500F08D
:103BBA0009D00501284B292B17D7090E04013C6FA0
:063BCA00FE0E006E120069
:103BD0006E0E0501045DD8A0CAD0640E046E04C543
:103BE00000F078EC14F0120E0024056E066A000E48
:103BF000062205C000F006C001F0000E06BEFF0E52
:103C0000026E036E0036009001360236033600362F
:103C10000090013602360336320E0024F66E940E02
:103C20000120F76E000E0220F86E0900F5CF00F0BB
:103C30000900F5CF01F00900F5CF02F00900F5CF3A
:103C400003F0000E046E000E056E000E066E7E0E72
:103C5000076E92EC07F000C005F501C006F502C042
:103C600007F503C008F5640E046E04C500F078EC97
:103C700014F008C000F00A0E046E78EC14F0090E7F
:103C80000024056E066A000E062205C000F006C07C
:103C900001F0000E06BEFF0E026E036E00360090AD
:103CA00001360236033600360090013602360336FE
:103CB000320E0024F66E940E0120F76E000E0220E4
:103CC000F86E0900F5CF00F00900F5CF01F009000A
:103CD000F5CF02F00900F5CF03F005C504F006C5E5
:103CE00005F007C506F008C507F092EC07F000C024
:103CF00005F501C006F502C007F503C008F50A0E78
:103D0000046E04C500F078EC14F008C000F000C0A8
:103D100001F0000E026E036E046E01360190023651
:103D20000336043601360190023603360436320E6D
:103D30000124F66E940E0220F76E000E0320F86E3A
:103D40000900F5CF00F00900F5CF01F00900F5CF2B
:103D500002F00900F5CF03F005C504F006C505F033
:103D600007C506F008C507F092EC07F0B1D0045182
:103D70000A08D8B07ED00A0E046E04C500F078ECB4
:103D800014F0090E0024056E066A000E062205C016
:103D900000F006C001F0000E06BEFF0E026E036EBC
:103DA00000360090013602360336003600900136A8
:103DB00002360336320E0024F66E940E0120F76EA2
:103DC000000E0220F86E0900F5CF00F00900F5CFD3
:103DD00001F00900F5CF02F00900F5CF03F0000E65
:103DE000046E000E056E000E066E7E0E076E92ECDF
:103DF00007F000C005F501C006F502C007F503C0D5
:103E000008F50A0E046E04C500F078EC14F008C042
:103E100000F000C001F0000E026E036E046E013669
:103E2000019002360336043601360190023603361D
:103E30000436320E0124F66E940E0220F76E000E48
:103E40000320F86E0900F5CF00F00900F5CF01F06E
:103E50000900F5CF02F00900F5CF03F005C504F025
:103E600006C505F007C506F008C507F092EC07F097
:103E70002FD004C500F0000E016E026E036E0036F6
:103E800000900136023603360036009001360236C5
:103E90000336320E0024F66E940E0120F76E000EEB
:103EA0000220F86E0900F5CF00F00900F5CF01F00F
:103EB0000900F5CF02F00900F5CF03F0000E046E03
:103EC000000E056E000E066E7E0E076E92EC07F079
:023ED0001200DE
:103ED200010E0201CA6F060E006E000E016EE3C2F1
:103EE20004F0000E056EB8EC06F0CB0E0026020EB2
:103EF2000122020E0024E96E000E0120EA6EEECFCE
:103F020089F5EECF8AF5EECF8BF5EECF8CF5CA0EA2
:103F120005018D6F000E8E6FADEC02F0005206E0CF
:103F2200100E04013C6FFF0E006EBAD0D50E0501D3
:103F3200896F000E8A6FE0EC06F000C03DF401C00C
:103F42003EF4D7C03FF4000E0401406FD80E0501C5
:103F5200896F000E8A6FE0EC06F000C041F401C0E8
:103F620042F4DAC043F4DB0E896F000E8A6FE0EC94
:103F720006F000C044F401C045F4E00E896F000E63
:103F82008A6FE0EC06F000C046F401C047F4060E6A
:103F9200006E000E016EE3C204F0000E056EB8EC76
:103FA20006F0CB0E0026020E0122020E0024E96E5C
:103FB200000E0120EA6E04014151EE24006E4251CE
:103FC200EE20016E000EEE20026E000EEE20036E59
:103FD20000C048F401C049F402C04AF403C04BF4E3
:103FE20043C400F0000E016E46C404F047C405F05D
:103FF200B8EC06F0000E026E036E485100264951DD
:1040020001224A5102224B51032200C04CF401C04A
:104012004DF402C04EF403C04FF4050E026E44C4C8
:1040220000F045C401F0025005E000360090013670
:10403200FF0FFAD73DC404F03EC405F021EC06F0B0
:10404200000E026E036E4C5100264D5101224E515C
:1040520002224F51032200C050F401C051F402C0A9
:1040620052F403C053F43DC454F43EC455F45533E2
:104072005433559F050E006E3DC435F43EC436F4EC
:10408200005005E036333533369FFF0FFAD74CC464
:1040920037F44DC438F44EC439F44FC43AF4006ACC
:0240A20012000A
:1040A40004C578F505C579F506C57AF507C57BF528
:1040B4003FEC0CF000C004F001C005F002C006F0B3
:1040C40003C007F0000E006E000E016E000E026EBB
:1040D4007F0E036E29EC08F0010ED8B0000E006EBE
:1040E400005205E0006A016A026A036AE4D004C56A
:1040F40000F005C501F006C502F007C503F004C5CC
:1041040004F005C505F006C506F007C507F092ECF6
:1041140007F000C004F001C005F002C006F003C0BF
:1041240007F0000E006E000E016E000E026E7F0E90
:10413400036EB7EC0FF000C067F501C068F502C06C
:1041440069F503C06AF576EC10F000C008F501C00B
:1041540009F502C00AF503C00BF504C578F505C5D9
:1041640079F506C57AF507C57BF53FEC0CF08F0EA3
:10417400046EC20E056E350E066E7E0E076E29ECB9
:1041840008F0010ED8B0000E006E00521DE008C504
:1041940004F009C505F00AC506F00BC507F004C50F
:1041A40000F005C501F006C502F007C503F021ECD7
:1041B4000AF000C067F501C068F502C069F503C0E4
:1041C4006AF5FAEC15F077D0046A056A066A076A9C
:1041D40004C500F005C501F006C502F007C503F0EB
:1041E40029EC08F0010ED8B0000E006E005235E044
:1041F400000E05010819006E000E0919016E800EEB
:104204000A19026E000E0B19036E04C504F005C5ED
:1042140005F006C506F007C507F021EC0AF000C05A
:1042240067F501C068F502C069F503C06AF5FAECE8
:1042340015F000C004F001C005F002C006F003C090
:1042440007F0DB0E006E0F0E016E490E026E7F0E3C
:10425400036EB7EC0FF0027E2ED004C504F005C542
:1042640005F006C506F007C507F008C500F009C546
:1042740001F00AC502F00BC503F021EC0AF000C0FE
:1042840067F501C068F502C069F503C06AF5FAEC88
:1042940015F000C004F001C005F002C006F003C030
:1042A40007F0DB0E006E0F0E016E490E026E7F0EDC
:0842B400036EB7EC0FF01200DD
:1042BC0054C404F055C405F004C500F005C501F064
:1042CC0021EC06F000C006F501C007F5000E050153
:1042DC00086F096F0401485105010625006E0401A1
:1042EC00495105010721016E04014A5105010821BC
:1042FC00026E04014B5105010921036E00C006F545
:10430C0001C007F502C008F503C009F5010E020152
:10431C00CA6F00C089F501C08AF502C08BF503C0D5
:10432C008CF5CA0E05018D6F000E8E6FADEC02F090
:10433C00005208E0100E04013C6FFF0E006EFF0EE1
:10434C00016E22D054C404F055C405F004C500F02D
:10435C0005C501F021EC06F008C000F009C001F021
:10436C0000C002F001C003F0023602900336CA0E00
:10437C0002240501896F000E03208A6FE0EC06F021
:0A438C0000C004F501C005F51200A1
:1043960005010407040704C501F0040701500008DD
:1043A60003E200000000F7D7000000000000000054
:0443B60000001200F1
:1043BA000450085E0550D8A0053C095E0650D8A0F6
:1043CA00063C0A5E0750D8A0073C0B5E0336070E70
:1043DA000C6E0334083609360A360B36045003A02D
:1043EA000ED0085E0550D8A0053C095E0650D8A03C
:1043FA00063C0A5E0750D8A0073C0B5E0DD0082683
:10440A000550D8B0053C09260650D8B0063C0A2605
:10441A000750D8B0073C0B2603360C2EDAD70234E5
:10442A00083609360A360B36045003A00ED0085E49
:10443A000550D8A0053C095E0650D8A0063C0A5E85
:10444A000750D8A0073C0B5E0DD008260550D8B0FF
:10445A00053C09260650D8B0063C0A260750D8B0B3
:10446A00073C0B260236070E0C6E02340836093654
:10447A000A360B36045002A00ED0085E0550D8A0AA
:10448A00053C095E0650D8A0063C0A5E0750D8A033
:10449A00073C0B5E0DD008260550D8B0053C09260E
:1044AA000650D8B0063C0A260750D8B0073C0B265F
:1044BA0002360C2EDAD70134083609360A360B369C
:1044CA00045002A00ED0085E0550D8A0053C095E33
:1044DA000650D8A0063C0A5E0750D8A0073C0B5EDF
:1044EA000DD008260550D8B0053C09260650D8B08C
:1044FA00063C0A260750D8B0073C0B260136070EA1
:10450A000C6E0134083609360A360B36045001A0FF
:10451A000ED0085E0550D8A0053C095E0650D8A00A
:10452A00063C0A5E0750D8A0073C0B5E0DD0082651
:10453A000550D8B0053C09260650D8B0063C0A26D4
:10454A000750D8B0073C0B2601360C2EDAD70034B8
:10455A00083609360A360B36045001A00ED0085E1A
:10456A000550D8A0053C095E0650D8A0063C0A5E54
:10457A000750D8A0073C0B5E0DD008260550D8B0CE
:10458A00053C09260650D8B0063C0A260750D8B082
:10459A00073C0B260036070E0C6E00340836093627
:1045AA000A360B36045000A00ED0085E0550D8A07B
:1045BA00053C095E0650D8A0063C0A5E0750D8A002
:1045CA00073C0B5E0DD008260550D8B0053C0926DD
:1045DA000650D8B0063C0A260750D8B0073C0B262E
:1045EA0000360C2EDAD700B00ED00450082605503B
:1045FA00D8B0053C09260650D8B0063C0A26075012
:08460A00D8B0073C0B2612009A
:104612000B6A0A6A096A086A0E6A03340836045089
:10462200085E0550D8A0053C095E0650D8A0063C9D
:104632000A5E0750D8A0073C0B5EE86AD8A0010EBC
:104642000E5E0336070E0C6E0334083609360A3640
:104652000B360E36045003A012D0085E0550D8A0C7
:10466200053C095E0650D8A0063C0A5E0750D8A059
:10467200073C0B5EE86AD8A0010E0E5E11D0082638
:104682000550D8B0053C09260650D8B0063C0A268B
:104692000750D8B0073C0B26E86AD8B0010E0E26A8
:1046A20003360C2ED1D70234083609360A360B36B9
:1046B2000E36045003A012D0085E0550D8A0053C67
:1046C200095E0650D8A0063C0A5E0750D8A0073CF7
:1046D2000B5EE86AD8A0010E0E5E11D008260550C6
:1046E200D8B0053C09260650D8B0063C0A26075029
:1046F200D8B0073C0B26E86AD8B0010E0E26023667
:10470200070E0C6E0234083609360A360B360E36A0
:10471200045002A012D0085E0550D8A0053C095EE4
:104722000650D8A0063C0A5E0750D8A0073C0B5E94
:10473200E86AD8A0010E0E5E11D008260550D8B046
:10474200053C09260650D8B0063C0A260750D8B0C8
:10475200073C0B26E86AD8B0010E0E2602360C2E54
:10476200D1D70134083609360A360B360E360450D4
:1047720002A012D0085E0550D8A0053C095E065082
:10478200D8A0063C0A5E0750D8A0073C0B5EE86A38
:10479200D8A0010E0E5E11D008260550D8B0053CF7
:1047A20009260650D8B0063C0A260750D8B0073C66
:1047B2000B26E86AD8B0010E0E260136070E0C6EE3
:1047C2000134083609360A360B360E36045001A07B
:1047D20012D0085E0550D8A0053C095E0650D8A04C
:1047E200063C0A5E0750D8A0073C0B5EE86AD8A0D8
:1047F200010E0E5E11D008260550D8B0053C0926E0
:104802000650D8B0063C0A260750D8B0073C0B2603
:10481200E86AD8B0010E0E2601360C2ED1D700342C
:10482200083609360A360B360E36045001A012D06D
:10483200085E0550D8A0053C095E0650D8A0063C8B
:104842000A5E0750D8A0073C0B5EE86AD8A0010EAA
:104852000E5E11D008260550D8B0053C0926065038
:10486200D8B0063C0A260750D8B0073C0B26E86AA7
:10487200D8B0010E0E260036070E0C6E0034083634
:1048820009360A360B360E36045000A012D0085EE6
:104892000550D8A0053C095E0650D8A0063C0A5E29
:1048A2000750D8A0073C0B5EE86AD8A0010E0E5E46
:1048B20011D008260550D8B0053C09260650D8B0BC
:1048C200063C0A260750D8B0073C0B26E86AD8B047
:1048D200010E0E2600360C2ED1D700B00ED0045099
:1048E20008260550D8B0053C09260650D8B0063C2B
:0C48F2000A260750D8B0073C0B26120025
:1048FE000C6A0E6A0250D8A498EF24F001C002F0A0
:10490E0000C001F0006A0E860250D8A498EF24F081
:10491E0001C002F0016A0E960E880250D8B4AAEFBA
:10492E0024F00E50035ED8A4D8A0B0EF24F0D89097
:10493E0002BEB6EF24F0003601360236032E9FEF8C
:10494E0024F0B0EF24F0010E0C6E34EC00F0BAEF50
:10495E0024F0020E0C6E1BEC00F0BAEF24F0040EE5
:08496E000C6E17EC00F01200C2
:104976000B1E0A1E091E081E082AD8B4092AD8B416
:084986000A2AD8B40B2A120022
:10498E0005010651071108E006C5E1FF07C5E2FF64
:10499E0004C5E6FF05C5E6FF04C5E9FF05C5EAFF48
:1049AE00EECF00F000C00AF500C089F562EC06F00B
:1049BE00005203E0044B052BEFD7086B000E0ABF25
:1049CE00FF0E006E000E001802E12D0E0A1905E111
:1049DE00010E086F044B052B0CD0000E0ABFFF0E04
:1049EE00006E000E001802E12B0E0A1902E1044BB4
:1049FE00052B0A6B0B6B0C6B0D6B0E6B096B08B9F1
:104A0E000BD004C5E9FF05C5EAFFEE502E0A04E1FE
:104A1E000889044B052B54D004C5E9FF05C5EAFFF0
:104A2E00EECF67F584EC11F0005201E14AD0088315
:104A3E000A51080A40E008A901D009070A2B0BC544
:104A4E0000F00CC501F00DC502F00EC503F00A0E04
:104A5E00046E000E056E066E076EF8EC09F000C0CF
:104A6E000BF501C00CF502C00DF503C00EF50000EC
:104A7E00000004C5E9FF05C5EAFF300EEE5C006ECE
:104A8E00016A000E015A000E01BEFF0E026E036E89
:104A9E000B5100260C5101220D5102220E51032200
:104AAE0000C00BF501C00CF502C00DF503C00EF5EC
:104ABE000000000003D008B901D0092B044B052BD0
:104ACE009ED70A6B04C5E9FF05C5EAFFEE50650ADD
:104ADE0008E004C5E9FF05C5EAFFEE50450A01E00E
:104AEE0068D0044B052B04C5E9FF05C5EAFFEE505F
:104AFE002D0A04E10887044B052B09D004C5E9FFF4
:104B0E0005C5EAFFEE502B0A02E1044B052B04C546
:104B1E00E9FF05C5EAFFEE50300A03E1044B052B11
:104B2E00F6D704C5E9FF05C5EAFFEECF67F584ECBD
:104B3E0011F0005239E004C5E9FF05C5EAFF300E59
:104B4E00EE5C0A6F044B052B04C5E9FF05C5EAFFB1
:104B5E00EECF67F584EC11F0005226E00A0E0A0340
:104B6E00F3CF0AF504C5E9FF05C5EAFF300EEE5C8A
:104B7E00006E00500A27044B052B04C5E9FF05C53E
:104B8E00EAFFEECF67F584EC11F000520DE00A0E4D
:104B9E000A03F3CF0AF504C5E9FF05C5EAFF300E97
:104BAE00EE5C006E00500A2708A703D00A510008D9
:104BBE000A6F0A510927000E071902E1000E0619A5
:104BCE000AE008A308D006C5E1FF07C5E2FF04C549
:104BDE00E6FF05C5E6FF0BC500F00CC501F00DC5DF
:104BEE0002F00EC503F0BBEC0FF000C00BF501C0D8
:104BFE000CF502C00DF503C00EF5046A056A066ACF
:104C0E00076A0BC500F00CC501F00DC502F00EC50C
:104C1E0003F06AEC0CF0010ED8A4000E006E0052E8
:104C2E0005E0006A016A026A036A04D1800E09195E
:104C3E00006E800E000A005CD8B073D009510008D7
:104C4E00096F800E0919006E800E0A0A005C1DE3C2
:104C5E000BC500F00CC501F00DC502F00EC503F03A
:104C6E00FF0E046EE60E056E5B0E066E5D0E076E93
:104C7E0092EC07F000C00BF501C00CF502C00DF56B
:104C8E0003C00EF50A0E095FDCD70951000A1CE0BD
:104C9E000BC500F00CC501F00DC502F00EC503F0FA
:104CAE00CD0E046ECC0E056E4C0E066E7B0E076E90
:104CBE0092EC07F000C00BF501C00CF502C00DF52B
:104CCE0003C00EF50907E1D7010E046E000E056E46
:104CDE00000E066E010E076E0BC500F00CC501F03E
:104CEE000DC502F00EC503F029EC08F0010ED8B088
:104CFE00000E006E005214E008A109D0010E006EE5
:104D0E00000E016E800E026E030E036E93D0010E26
:104D1E00006E000E016E000E026E010E036E8AD042
:104D2E0072D0800E000A006E800E0919005C6BE2D4
:104D3E000A0E095D1DE30BC500F00CC501F00DC593
:104D4E0002F00EC503F0F90E046E020E056E150E7E
:104D5E00066EA00E076E92EC07F000C00BF501C0B8
:104D6E000CF502C00DF503C00EF50A0E095FE0D773
:104D7E000951000A1CE00BC500F00CC501F00DC571
:104D8E0002F00EC503F0000E046E000E056E200E2E
:104D9E00066E820E076E92EC07F000C00BF501C096
:104DAE000CF502C00DF503C00EF50907E1D70BC5D2
:104DBE0004F00CC505F00DC506F00EC507F0FF0E8C
:104DCE00006EFF0E016E7F0E026EFF0E036E29EC5B
:104DDE0008F0010ED8B0000E006E005214E008A1CB
:104DEE0009D0FF0E006EFF0E016EFF0E026EFF0E5B
:104DFE00036E20D0FF0E006EFF0E016E7F0E026E50
:104E0E00FF0E036E17D008A10DD0000E0B19006E09
:104E1E00000E0C19016E800E0D19026E000E0E1989
:104E2E00036E08D00BC500F00CC501F00DC502F0E5
:064E3E000EC503F0120096
:104E44000050086E0150006E0250016E0350026E55
:104E5400036A0B6A0C6A9E0E036E0A6A020E0C6EDB
:064E640047EC00F0120013
:104E6A0005010C6B046A056A066A076A04C500F044
:104E7A0005C501F006C502F007C503F029EC08F0E4
:104E8A00010ED8B0000E006E005203E0067F010E3C
:104E9A000C6F04C500F005C501F006C502F007C590
:104EAA0003F0830E046EF90E056E220E066E7C0E5A
:104EBA00076E92EC07F000C004F501C005F502C0C8
:104ECA0006F503C007F500C067F501C068F502C022
:104EDA0069F503C06AF540EC15F000C004F001C0A2
:104EEA0005F002C006F003C007F004C500F005C5CE
:104EFA0001F006C502F007C503F0B7EC0FF0000E8B
:104F0A00046E000E056E000E066E810E076E92ECA0
:104F1A0007F000C004F501C005F502C006F503C09C
:104F2A0007F500C004F001C005F002C006F003C096
:104F3A0007F0000E006E000E016E000E026E800E6B
:104F4A00036E29EC08F0010ED8B0000E006E005274
:104F5A0020E0000E046E000E056E000E066E800E36
:104F6A00076E04C500F005C501F006C502F007C5C5
:104F7A0003F0B7EC0FF000C004F501C005F502C05C
:104F8A0006F503C007F505010C53010ED8A4000E5F
:104F9A000C6F04C504F005C505F006C506F007C583
:104FAA0007F0000E006E000E016E000E026E7F0EFC
:104FBA00036E29EC08F0010ED8B0000E006E005204
:104FCA001AE004C504F005C505F006C506F007C5D4
:104FDA0007F0000E006E000E016E000E026E800ECB
:104FEA00036EB7EC0FF000C004F501C005F502C06E
:104FFA0006F503C007F5050104C500F005C501F073
:10500A0006C502F007C503F004C504F005C505F09E
:10501A0006C506F007C507F092EC07F000C008F5D0
:10502A0001C009F502C00AF503C00BF500C078F506
:10503A0001C079F502C07AF503C07BF53E0E7C6F9C
:10504A00950E7D6F000E7E6F040E7F6F000E806FCF
:10505A0099EC0BF004C504F005C505F006C506F089
:10506A0007C507F092EC07F000C004F501C005F58A
:10507A0002C006F503C007F508C578F509C579F534
:10508A000AC57AF50BC57BF5740E7C6F950E7D6F9C
:10509A00000E7E6F030E7F6F000E806F99EC0BF08F
:1050AA0000C004F001C005F002C006F003C007F01A
:1050BA0004C500F005C501F006C502F007C503F0F6
:1050CA0021EC0AF000C004F501C005F502C006F59E
:1050DA0003C007F505010C530DE0000E0419006E1C
:1050EA00000E0519016E800E0619026E000E0719D0
:1050FA00036E08D004C500F005C501F006C502F02C
:06510A0007C503F01200CE
:105110000201E49104C567F549EC13F0E481120043
:10512000DCC4E1FFDDC4E2FFE66A010E0401DF6FCB
:10513000DE6B0201E49324C4E9FF25C4EAFF040105
:105140002651000A15E104012751EF14016E0150A8
:10515000000A0DE00201E4A309D0DCC4E1FFDDC4D4
:10516000E2FFFF0EE66EDEC400F060D0ECD714D094
:1051700004012751EF14016E0150000A0DE10201F4
:10518000E4A309D0DCC4E1FFDDC4E2FFFF0EE66E5C
:10519000DEC400F04BD0ECD728C404F5CBEC21F0F2
:1051A0002EC404F5CBEC21F00401DF5317E02751A6
:1051B000EF14016E0150000A02E0DF51DE13DF3709
:1051C000DF91020E2E5D0501046FCBEC21F0000093
:1051D00000000000000000000000E6D70401265196
:1051E000000A10E12751EF14016E0150000A010E70
:1051F000D8A4000E006EDCC4E1FFDDC4E2FF00C0F5
:10520000E6FF0FD02751EF14016E0150000A000E87
:10521000D8A4010E006EDCC4E1FFDDC4E2FF00C0D3
:0E522000E6FF2651DE19006E00C0DEF412001B
:10522E000450000A12E10550000A0FE10650000A70
:10523E000CE10750000A09E1FF0E006EFF0E016E31
:10524E00FF0E026E7F0E036E99D00C6A07BE0C2AFB
:10525E000D6A0B6A0A6A096A086A03500210011085
:10526E000010D8B485D0035007180E6E0EBE0D1E5A
:10527E0007AE0BD0041E051E061E071E042AD8B448
:10528E00052AD8B4062AD8B4072A03AE0BD0001EBE
:10529E00011E021E031E002AD8B4012AD8B4022A07
:1052AE00D8B4032A035007100E6E0EBE1DD0DDECCF
:1052BE0021F00CBE36D00DAE5BD0001E011E021EBC
:1052CE00031E002AD8B4012AD8B4022AD8B4032A5D
:1052DE00081E091E0A1E0B1E082AD8B4092AD8B4A5
:1052EE000A2AD8B40B2A44D007AE15D003BE0DD06F
:1052FE0003500B6E02500A6E0150096E0050086E7C
:10530E00036A026A016A006AD6D7036A026A016AF0
:10531E00006A002A000C031E021E011E001E0C8EC7
:10532E00C6D7082AD8B4092AD8B40A2AD8B40B2A60
:10533E000450085CD8A4BFD70550095CD8A4BBD7CD
:10534E0006500A5CD8A4B7D707500B5CD8A4B3D7C5
:10535E000B6A0A6A096A086A002AD8B4012AD8B404
:10536E00022AD8B4032A03AEA6D70E6A0E88FF0C03
:0E537E000E6A0CA002D0BBEC24F0000F12004F
:10538C00400E006E1F0E016E000E026E036E1200B8
:10539C00050E3C6E9490B3EC01F00401DC6BDD6BFC
:1053AC00000EDD5D02E10A0EDC5D10E2E7C2E1FFFA
:1053BC00E8C2E2FFFF0EE66EE5C200F0E6C201F0C5
:1053CC0028EC00F00401DC4BDD2BEAD7A1EC01F05A
:1053DC000501976B986B996B9A6B9B6B950E9C6FF9
:1053EC0038EC01F000C0DEF4B3EC01F00401DE5146
:1053FC00010A03E0010E006E83D0A1EC01F0080E4F
:10540C000501976FAA0E986F010E996F000E9A6F97
:10541C009B6F870E9C6F38EC01F000C0DEF4E7C286
:10542C00E1FFE8C2E2FFFF0EE66EE5C200F0E6C265
:10543C0001F028EC00F0E7C2E1FFE8C2E2FFFF0E4A
:10544C00E66EE5C200F0E6C201F028EC00F0E7C21F
:10545C00E1FFE8C2E2FFFF0EE66EE5C200F0E6C235
:10546C0001F028EC00F0E7C2E1FFE8C2E2FFFF0E1A
:10547C00E66EE5C200F0E6C201F028EC00F0B3ECF9
:10548C0001F00401DE51010A0BE0010E0501046F6D
:10549C0043EC17F0005203E0046B43EC17F005D01B
:1054AC000501020E046F43EC17F0000E000A02E136
:1054BC00050E3C1803E1020E006E22D0000E000A0D
:1054CC0002E1040E3C181BE00501A1EC01F0100EEA
:1054DC00976F000E986F020E996F000E9A6F9B6F6C
:1054EC00FF0E9C6F38EC01F000C0DEF4B3EC01F061
:1054FC000401DE51000A03E0030E006E01D0006AC5
:02550C0012008B
:10550E000401E66B010E0201CA6F0501896B8A6BFD
:10551E008B6B8C6BCA0E8D6F000E8E6FADEC02F026
:10552E00005206E0100E04013C6FFF0E006E97D184
:10553E000401CA0EDE6F000EDF6FFE0EDE25E96E71
:10554E00010EDF21EA6EEE50550A03E0010E006EE9
:10555E0086D1FF0EDE25E96E010EDF21EA6EEE50DA
:10556E00AA0A03E0010E006E7AD1E66BDEC4E9FFF3
:10557E00DFC4EAFFEE50E90A02E1010EE66FDEC477
:10558E00E9FFDFC4EAFFEE50EB0A0BE1020EDE2567
:10559E00E96E000EDF21EA6EEE50900A02E1010E76
:1055AE00E66FE653D8B4B9D0E26BE36BE46BE56B10
:1055BE00CB0EDC6F020EDD6FDCC4E1FFDDC4E2FF5B
:1055CE00800EE66E020EDC25E16E000EDD21E26E2F
:1055DE00E66AE66AE66AE66A69EC1FF0800E001873
:1055EE00016E800E000A015C03E2010E006E37D1DF
:1055FE0046514711D8B485D00001DE51DD11006E41
:10560E001FE0DEC0E2F4000E0401E36FE46FE56F0D
:10561E00E4C4E5F4E3C4E4F4E2C4E3F4E26B0001B1
:10562E00DD510401E227000EE323E423E523010EFE
:10563E00DC25E16E000EDD21E26E040EE66E11D069
:10564E000401EAC0E2F4EBC0E3F4ECC0E4F4EDC014
:10565E00E5F4010EDC25E16E000EDD21E26E060E94
:10566E00E66EE2C400F0E3C401F0E4C402F0E5C467
:10567E0003F05051005E5151015A5251025A53518A
:10568E00035A3FC404F040C405F0000E066E076EC8
:10569E0009EC23F000C0E2F401C0E3F402C0E4F42C
:1056AE0003C0E5F4000E035C08E1000E025C05E1A8
:1056BE000F0E015C02E1F50E005C0BE2010EDC2523
:1056CE00E16E000EDD21E26E010EE66E010E006E41
:1056DE00C6D0E551000808E1E451000805E1E351A8
:1056EE00FF0802E1E251F5080BE2010EDC25E16E46
:1056FE00000EDD21E26E0B0EE66E010E006EAFD0D7
:10570E000BD0010EDC25E16E000EDD21E26E0B0EDC
:10571E00E66E010E006EA3D0A1D0880EDE6F020ED3
:10572E00DF6FE06BE16B000EE15D02E1040EE05D08
:10573E0058E2060E006E000E016EE0C404F0E1C4E5
:10574E0005F0B8EC06F0CB0E0026020E012200C0CA
:10575E00DCF401C0DDF4DEC4E9FFDFC4EAFF00C003
:10576E00E1FF01C0E2FFEECFE6FF040EDE25006E84
:10577E00000EDF21016E00C0DEF401C0DFF4010E69
:10578E00DC25E16E000EDD21E26E00C0E9FF01C0F6
:10579E00EAFFEECFE6FF040EDE25006E000EDF21DF
:1057AE00016E00C0DEF401C0DFF4020EDC25E76FEF
:1057BE00000EDD21E86F00C089F501C08AF505EC09
:1057CE0007F0E7C4E1FFE8C4E2FF00C0E6FF01C056
:1057DE00E6FF02C0E6FF03C0E6FF0401E04BE12B4B
:1057EE00A2D7060E006E000E016EE3C204F0000E8C
:1057FE00056EB8EC06F0CB0E0026020E0122010E4D
:10580E000024E96E000E0120EA6EEE50040A1AE042
:10581E00060E006E000E016EE3C204F0000E056E61
:10582E00B8EC06F0CB0E0026020E0122010E00246B
:10583E00E96E000E0120EA6EEE50060A03E0010E3C
:10584E00006E0DD069EC1FF0800E0018016E800EF8
:10585E00000A015C03E2010E006E01D0006A120024
:10586E00010E0201CA6FCA0E0501896F000E8A6F02
:10587E008B6B000E8C6F020E8D6F72EC06F00401B6
:10588E00DC6B020EDC5D1BE21C0E006E000E016E68
:10589E00DCC404F0000E056EB8EC06F0560E0024C3
:1058AE000501896F040E01208A6F8B6B1C0E8C6FA5
:1058BE00000E8D6F72EC06F00401DC2BE2D7A10E08
:1058CE000501896F040E8A6F8B6B1C0E8C6F000E98
:1058DE008D6F72EC06F00401DC6B040EDC5D1BE2D6
:1058EE00060E006E000E016EDCC404F0000E056E96
:1058FE00B8EC06F0CB0E00240501896F020E0120D4
:10590E008A6F8B6B060E8C6F000E8D6F72EC06F02D
:10591E000401DC2BE2D73D0E0501896F040E8A6F60
:10592E008B6B170E8C6F000E8D6F72EC06F0CA0E1D
:10593E000401906F020E916F0201E36B0401376B4D
:10594E00386B396B3A6B3C6B926B936B316B326B82
:10595E00336B346BFF0E3B6F940E0501896F040E93
:10596E008A6F8B6B0D0E8C6F000E8D6F72EC06F0C6
:0C597E000401BD6BBE6B8E6B8F6B1200C2
:10598A00DCC404F0DDC405F0DEC406F0DFC407F0B1
:10599A00DB0E006E0F0E016E490E026E800E036E54
:1059AA0029EC08F0010ED8B0000E006E00521DE07E
:1059BA00E40E046ECB0E056E160E066E810E076E91
:1059CA00DCC400F0DDC401F0DEC402F0DFC403F081
:1059DA00B7EC0FF000C004F501C005F502C006F5EA
:1059EA0003C007F535EC27F01CD0DCC400F0DDC499
:1059FA0001F0DEC402F0DFC403F0DB0E046E0F0E0A
:105A0A00056E490E066E7F0E076E31EC03F000C07C
:105A1A0004F501C005F502C006F503C007F535EC2B
:045A2A0027F012004F
:105A2E00DCC400F0DDC401F0DEC402F0DFC403F01C
